:020000040800F2
:10000000F80C002021020008250200082702000841
:10001000290200082B0200082D0200080000000041
:100020000000000000000000000000002F02000897
:100030003102000800000000330200083502000809
:1000400037020008370200083702000837020008AC
:10005000370200083702000837020008370200089C
:10006000370200083702000837020008370200088C
:10007000370200083702000837020008370200087C
:10008000370200083702000837020008370200086C
:10009000370200083702000837020008370200085C
:1000A000370200083702000837020008370200084C
:1000B0000B1A0008231A0008591A00083702000812
:1000C000370200083702000837020008370200082C
:1000D00037020008370200084F080008F120000826
:1000E00069280008370200083702000837020008B4
:1000F00037020008370200083702000837020008FC
:1001000037020008370200086B1A0008370200089F
:1001100037020008370200083702000837020008DB
:1001200037020008370200083702000837020008CB
:1001300000F002F800F05FF80AA090E8000C82449A
:100140008344AAF10107DA4501D100F054F8AFF277
:10015000090EBAE80F0013F0010F18BFFB1A43F0A5
:10016000010318472CAB00004CAB00000A444FF0D1
:10017000000C10F8013B13F0070408BF10F8014B06
:100180001D1108BF10F8015B641E05D010F8016B4B
:10019000641E01F8016BF9D113F0080F1EBF10F8AF
:1001A000014BAD1C0C1B09D16D1E58BF01F801CBD2
:1001B000FAD505E014F8016B01F8016B6D1EF9D555
:1001C0009142D6D37047000000230024002500266A
:1001D000103A28BF78C1FBD8520728BF30C148BFAA
:1001E0000B607047642906F06584002070471FB5D6
:1001F0001FBD10B510BD06F02DFE1146FFF7F7FF2D
:1002000000F02AF806F04BFE03B4FFF7F2FF03BC40
:1002100000F028FA30BF72B662B680F308887047E3
:1002200008480047FEE7FEE7FEE7FEE7FEE7FEE7D9
:10023000FEE7FEE7FEE7FEE703480449044A054BF4
:100240007047000031010008F8060020F80C00207B
:10025000F8080020F8080020092000F0AAF948203A
:1002600000F04AF8022000F08FF9012000F08CF92C
:1002700000F0F2FC00F02AFD00F06BFF4FF4FA31C1
:10028000482000F009FA4FF41651242000F06AFAD1
:1002900001F0DEF901F04CFA01F0B4FA01F01AFBBA
:1002A00001F01AF801F0EEFB05F0BBFC05F0CDFC07
:1002B000002141F61F4001F01FF901F069FE14E032
:1002C0000A48007820B906F0CAF905F06FFF01E08E
:1002D00006F057FA01200649087000200549087009
:1002E00000BF034800780028FBD1E9E701000020A7
:1002F00049000020480000204FF0E021096921F06A
:1003000004014FF0E0221161C21700EB5272C2F3F8
:10031000C702234B1A701946097801EB4102C2EB60
:10032000C1114FF6FF7202EAC1011E4A11807047E7
:1003300001461B4A12784A434FF0E0235A610022DB
:100340009A6101221A6100BF4FF0E022106900F0AB
:1003500001021AB100F48032002AF5D000224FF0D9
:10036000E0231A619A61704701460E4A12884A4397
:100370004FF0E0235A6100229A6101221A6100BF06
:100380004FF0E022106900F001021AB100F480324F
:10039000002AF5D000224FF0E0231A619A617047DD
:1003A000AC000020AE000020A34A0A400243A34B49
:1003B0001A6070470146072323EA010212029F4B8D
:1003C0001B1D18684FF6FF0318409D4B1843104340
:1003D0009A4B1B1D186070472DE9F041074688466F
:1003E00014461D462846FFF7E5FFC5F1040007FA4D
:1003F00000F60F20284100EA0800064306F00F0629
:10040000E21704EBD2625211920002F1E022D2F81C
:1004100000212146E31704EBD3635B11A4EB431CDB
:10042000012303FA0CF31A432046E31704EBD363CA
:100430005B119B0003F1E023C3F800218148005DBC
:1004400040EA06107F490855BDE8F08170B50446C2
:100450000B46CE1701EB9676C6F38700CE1701EB5D
:100460009676B610A1EB8606B606350E764B9B69DE
:1004700043F00103744EB3614FEAB63353F82030B2
:100480000F26AE40B343714E46F82030334653F842
:10049000203004FA05F61E436C4B43F820606C4B89
:1004A0001B6801268E403343694E336002F001031E
:1004B00043B1674B0C331B6801268E403343644EB7
:1004C0000C36336002F0020343B1614B08331E68FF
:1004D00001238B401E435E4B08331E6070BD00B588
:1004E000002059490861C8601420486100208861D3
:1004F000C8610846006840F001000860084640688E
:10050000544908405049486008460068524908402C
:100510004D4908600846006820F4802008600846BD
:10052000406820F4FE0048600020886000214FF001
:100530000060FFF739FF00BD10B540480830006883
:1005400040F004003D49083108603F48C06940F070
:1005500080503D49C8614148406840F480703F493F
:1005600048600846006840F00400086008460068DB
:1005700040F002000860FFF74DFE10BD3048001D3E
:100580002E49091D08607047014649062E4A9269A6
:1005900042F001022C4B9A612C4A083A526822F030
:1005A000E0622A4B083B5A601A4652680A435A6076
:1005B000704730B504460025FFF791FF22480068D8
:1005C00040F480302049086000BF1F480068400C9C
:1005D0000028FAD04FF480601B494860A01EC4B2C6
:1005E0000846406840EA844048600846406840F455
:1005F000803048601A48006840F0320018490860AE
:100600001148006840F080700F49086000BF0E4834
:100610000068400E0028FAD00B48406840F0020005
:100620000949486005E008484068C0F3870505F0BF
:100630000305022DF7D130BD80FFFF1F08ED00E05C
:100640000000FA0500E400E000100240080001404C
:10065000000401400000FFF8FFFFF6FE00700040BC
:1006600000200240014600BF704700BFFE4A1288CA
:1006700002F04002002AF9D0C2B2FB4B1B1D1A80C7
:100680007047FA49088000BFF849091F098801F03E
:1006900040010029F8D070472DE9F05F05460E466D
:1006A000300108F07BFC8146F14905FB01F008F0C0
:1006B00075FC8246494608F027FB0746384608F095
:1006C00035FC84B2204608F069FC8346394608F0C0
:1006D000AAFD82464FF0834108F0A8FC814608F04D
:1006E00025FC80464FF6FF7000EA041404EB080076
:1006F00084B2E048806940F00400DE498861084621
:10070000806940F480408861DB48006820F47F60A5
:10071000D94908600846006840F40B600860D54875
:10072000C06840F48040D349C8600846C06820F4DF
:100730008040C860CD48001D0480001D008842F242
:100740000C010843C94908310880BDE8F09FC6493B
:10075000091D088000BFC449098801F04001002933
:10076000F9D070472DE9F05F05460E46300108F0DC
:1007700015FC8146BE4905FB01F008F00FFC8246DE
:10078000494608F0C1FA0746384608F0CFFB84B264
:10079000204608F003FC8346394608F044FD8246B3
:1007A0004FF0834108F042FC814608F0BFFB8046D1
:1007B0004FF6FF7000EA041404EB080084B2AD4861
:1007C000806940F00400AB4988610846C06940F484
:1007D0000030C861A848001F006820F47F40A64987
:1007E000091F08600846006840F40B400860A248F2
:1007F0000830006840F480609F49083108609D48D7
:10080000006940F480209B4908610846006920F493
:1008100080200861944808300480001D008842F25E
:100820000C01084390490C3108800846008840F4C8
:10083000807008800846008840F02000088002236D
:10084000262201210020FFF7C7FDBDE8F09F2DE91A
:10085000FF5F8548008800F02000002876D082489D
:10086000001D00888549086008460068592802D1A3
:1008700002208349087081480068582802D101206D
:100880007F4908707D4800684B2803D101207D49CD
:1008900008700AE079480068492803D07748006862
:1008A0004A2802D10020774908707648007800284D
:1008B0007DD1724800685A2809D100207249087019
:1008C000724908707249087072490870AAE06B4852
:1008D000006841280AD101206B49087000206B494B
:1008E00008706B4908706B4908709BE063480068AA
:1008F00042280BD101206449087000206349087028
:10090000634908700120634908708BE05B48006808
:1009100043280AD100205C4908705C4908705C4992
:10092000087001205B4908707CE054480068442846
:100930000DD100205449087001205449087000204E
:10094000534908700120534908706BE0FEE04B48A2
:10095000006845280BD100204B49087001204B4905
:10096000087000204A4908704A4908705AE0434814
:10097000006846280BD100204349087001204349F4
:100980000870434908700020424908704AE03B481B
:10099000006847280CD100203B4908703B4908708B
:1009A00001203B49087000203A4908703AE01AE0FB
:1009B0003248006848280CD10120334908700020D3
:1009C000324908700120324908700020314908700E
:1009D00028E000202C4908702C4908702C49087028
:1009E0002C4908701EE02748007801281AD12348B6
:1009F0000068432806D100202749087001202749B4
:100A000008700FE01D480068472806D101202249E0
:100A1000087000202149087004E000201E49087079
:100A20001E490870154800687B2802D101201C4926
:100A30000870124800687D2802D102201849087009
:100A40001748007801280AD10C4800781549164A41
:100A50001278885414480078401C134908701048D4
:100A60000078022872D121E000440040043801409F
:100A700040420F000010024004080140B400002072
:100A80004A0000204B000020100000201100002030
:100A90001200002013000020140000201500002088
:100AA000B800002094010020B90000205B48C07805
:100AB000502803D101205A49087071E05748407806
:100AC00023286DD0574800785749087034E05549BD
:100AD0000978554A1278881A07F005FD8046424683
:100AE0000B460020514906F077FD04460D464E495D
:100AF0000978491E494A515CA1F1300007F0F3FC26
:100B0000064622462B4607F055FD82468B4648484E
:100B1000006808F05FF852465B46CDE9000107F037
:100B20009FFACDE9020107F069FA414908603E48A1
:100B30000078401E3C4908703B4800780428C6DA1B
:100B4000364840783038092829D200E035E0DFE81F
:100B500000F0050A0F14191E2324250034480068EC
:100B6000344908601BE0324800683349086016E0E9
:100B70002F4800683149086011E02D48006830496D
:100B800008600CE02A4800682E49086007E0284801
:100B900000682D49086002E001E000E000BF00BFEE
:100BA00000202A4908701F4908701F490870204911
:100BB00008603221194805F0EDFF002004B0BDE8BF
:100BC000F09F23480078F8B1224800685A281BD0CB
:100BD00000201F4A10701F480068012806DB1D48CE
:100BE0000068082802DC1B4801780BE019480068FF
:100BF000412807DB17480068482803DC15480078BF
:100C00004038C1B208467047124800685A2802D1DD
:100C100001200F4A10700020F5E700009401002029
:100C20004C000020B9000020BA0000200000244041
:100C3000BC00002074000020780000208400002008
:100C4000880000209400002098000020B8000020B8
:100C5000C0000020B40000201748806940F0080060
:100C6000154988611548006820F470001349086030
:100C70000846006840F440100860104808300068DA
:100C800040F400500D4908310860704718B9002140
:100C90000B4A11600FE00B490968491C094A1160B1
:100CA000814208D106490968C943074AC2F8B4110C
:100CB0000021044A1160704700100240040C0140FA
:100CC000B4812142C400002000802142594880693B
:100CD00040F0080057498861574800685749084064
:100CE000554908600846006855490843524908605C
:100CF00051480830006840F480504F49083108607E
:100D00000846006840F480400860704701464D483E
:100D1000006828B94C480088401C4B4A108002E00B
:100D20000020494A10804748006828B947480078A1
:100D300010B90120454A107045480078B0B94348C1
:100D40000078012807D143480078401C414A1070C0
:100D500001203F4A10703F480078022806D1002049
:100D60003C4A10703C4A10800220704735480068A9
:100D7000012804D10020354A1070354A10703548DA
:100D8000007801281CD134480088401C324A108069
:100D90001046008888420ADD2B480088884206DA1F
:100DA00000202C4A10702C4A10800120DDE72648D4
:100DB0000088884204DD0020264A1070264A1080F0
:100DC0000020D2E72548007838B11E48006820B9D5
:100DD000002022490870012070471A480068012845
:100DE00001D11E4908700020F6E71D48008840B96F
:100DF0001448006828B91B480088401C194908801D
:100E000002E000201749088016480088C82807DD3E
:100E100001201349088000201249088001207047F2
:100E20000F480088012802D100200D4908800020C9
:100E3000F5E7000000100240040C0140FFFFF0F055
:100E40000000080838812142CE000020C8000020A0
:100E5000C9000020CA000020CC000020D0000020E3
:100E6000D4000020D200002010B50A461AB1012398
:100E7000FE4C236002E00023FC4C2360002116E0BE
:100E80000023FA4C3434236000F080031BB10123AB
:100E9000241D236003E00023F44C38342360012335
:100EA000F24C343423604306180E4B1CD9B2082987
:100EB000E6DB0123ED4C236010BD30B500241CE0BF
:100EC00004F1B001C8B20021FFF7CEFF00210846AF
:100ED000FFF7CAFF00211020FFF7C6FF002508E03A
:100EE000E34901EBC501085D0121FFF7BDFF681C67
:100EF000C5B2802DF4DB601CC4B2082CE0DB30BD31
:100F000000B500218D20FFF7AFFF00211420FFF76F
:100F1000ABFF0021AF20FFF7A7FF00BD00B5002108
:100F20008D20FFF7A1FF00211020FFF79DFF00217A
:100F3000AE20FFF799FF00BD30B500240CE000257E
:100F400006E00020CA4901EBC5010855681CC5B27E
:100F5000802DF6DB601CC4B2082CF0DBFFF7ADFF80
:100F600030BDF0B5144600267F2801DC3F2900DDA6
:100F7000F0BD0B46CF1701EB5777FF10C7F10707FE
:100F8000FAB2CF1701EB5777FF10A1EBC707FDB2FD
:100F9000C5F107070123BB40DEB24CB1B44B03EBF4
:100FA000C0039B5C3343B24F07EBC007BB5408E060
:100FB000AF4B03EBC0039B5CB343AD4F07EBC007E4
:100FC000BB5400BFD4E72DE9F04F80460C461546D0
:100FD0001E46A346A5F12000C5B200273EE00C2E18
:100FE00007D105EB4500A34901EB800010F80790FD
:100FF00004E0A14800EB051010F807904FF0000A3C
:1010000026E009F0800028B121464046099AFFF702
:10101000A8FF09E0099808B9012000E00020024675
:1010200021464046FFF79DFF4FEA49604FEA1069AD
:10103000601CC4B2A4EB0B00B04205D15C4608F1C1
:10104000010000F0FF0806E00AF1010000F0FF0ACD
:10105000BAF1080FD5DB00BF781CC7B2B742BEDBC0
:10106000BDE8F08F10B50246012000E050430B1E92
:10107000A1F10104E1B2F9D110BD2DE9FF4F81B01A
:10108000074691461E460E9D4FF0000A002439E0A7
:10109000301B401EC1B20A20FFF7E4FFB9FBF0F09D
:1010A0000A21B0FBF1F201FB1208BAF1000F16D1D0
:1010B000701EA04213DDB8F1000F0ED10120AB4627
:1010C00005EBDB71491001FB04710090C8B22B469F
:1010D00020220299FFF777FF12E04FF0010A01206A
:1010E000AB4605EBDB71491001FB04710090C8B2FF
:1010F00008F13001CAB22B460299FFF764FF00BF26
:10110000601CC4B2B442C3DB05B0BDE8F08F78B553
:1011100005460E46144618E07A2D03DD002506F13B
:101120001000C6B23A2E04DD002005460646FFF741
:1011300003FF0120009022780C2331462846FFF758
:1011400042FF05F10800C5B2641C20780028E3D1F5
:1011500078BD10B54948806940F010004749886162
:101160000846806940F00100886145484068C0F346
:1011700013004349486008464068424908434049D3
:1011800048600846006820F00F00086008460068C4
:1011900040F0020008603C48006840F480703A4922
:1011A00008603648006A20F0010034490862374878
:1011B000008820F00100354908803348006820F499
:1011C000807031490860002028493C310860642063
:1011D000FFF7CAF801202E49C1F8BC010021AE205A
:1011E000FFF742FE0021D520FFF73EFE00215020F0
:1011F000FFF73AFE0021A820FFF736FE00213F202E
:10120000FFF732FE0021D320FFF72EFE0021084613
:10121000FFF72AFE00214020FFF726FE00218D2047
:10122000FFF722FE00211420FFF71EFE00212020E0
:10123000FFF71AFE00210220FFF716FE0021A12071
:10124000FFF712FE0021C020FFF70EFE0021DA207A
:10125000FFF70AFE00211220FFF706FE0021812081
:10126000FFF702FE0021EF2014E00000800122427F
:10127000C6010020169400088A9800080010024059
:10128000001001400000202200700040306C00403F
:1012900000002242FFF7E8FD0021D920FFF7E4FD1E
:1012A0000021F120FFF7E0FD0021DB20FFF7DCFD4E
:1012B00000213020FFF7D8FD0021A420FFF7D4FD46
:1012C0000021A620FFF7D0FD0021AF20FFF7CCFDC5
:1012D000FFF732FE10BD00006D48806940F0040049
:1012E0006B4988616B48006820F4700069490860A8
:1012F0006748806940F40070654988610846C068A5
:1013000040F40070C8600846C06820F40070C860EF
:101310000846406820F4404048600846406840F471
:10132000004048605C4800685C4908405A490860D1
:101330000846006808600846006820F4807008606D
:10134000081D006820F00200091D086008460068BA
:1013500020F4602008600846006840F460200860BF
:101360000846006840F4801008600846006820F4D1
:101370000060086048482830006820F47000464942
:1013800028310860084600680020086042480C3098
:10139000006820F4700040490C310860084600687D
:1013A00040F4603008603C48001D006840F00100D7
:1013B0003949091D08600846006840F008000860C7
:1013C00000BF3548001D006800F008000028F8D173
:1013D0003148001D006840F004002F49091D0860D5
:1013E00000BF2D48001D006800F004000028F8D15F
:1013F0007047014628483030006820F01F00264A18
:101400003032106010460068084310602248001D0A
:10141000006840F48000204A121D106000BF1E4882
:10142000001F006800F002000028F8D01A48483079
:10143000006880B270472DE9F04F87B00520FFF7B4
:10144000D8FF019007F066F880464FF06632144BE3
:1014500007F0B0F80022134BCDE9020107F0AAF81B
:101460000022114BCDE9040107F0A4F80646002242
:101470000E4B06F0B1FE044600220D4B06F0ACFE0A
:10148000824607F001F80690069807B0BDE8F08F95
:10149000001002400008014004240140FFFFF0005A
:1014A00066660A4000002640000059400000F03FF8
:1014B0000000B0406148806940F008005F498861E1
:1014C0000846806940F0100088615D48006820F09F
:1014D000FF005B4908600846006840F02200086091
:1014E0005848006820F47F005649086008460068A4
:1014F00040F408100860704700B503460A46FFF73D
:10150000D9FF4E48806940F400504C498861084634
:10151000806940F0100088614A48406820F0FF0070
:10152000484948600846406840F0BB0048600846AB
:10153000006820F07F4008600846006840F03B40AB
:10154000086041480380001F02803F48143800882B
:1015500040F060003C49143908800846008840F497
:10156000C0400880081D008840F06000091D088008
:101570000846008840F4C0400880081F008840F0FA
:101580000800091F08800846008840F400600880B1
:10159000081D008840F00800091D088008460088E2
:1015A00040F400600880081D008840F00100091D1B
:1015B00008800846008840F010000880084600882F
:1015C00040F4807008800846008840F4805008800D
:1015D0001D481830008840F400401B49183108802D
:1015E0004FF4004018492C3908800846008840F024
:1015F0000100088000BD70B505460C460F48C06963
:1016000040F010000D49C861104885850485808927
:1016100040F001000D4988810846808940F0400073
:1016200088810846008840F00100088002233622A5
:1016300001210846FEF7D0FE70BD000000100240F8
:10164000000C0140001001402C340140001000400B
:1016500010B5FA48406840F48070F8494860F8488E
:10166000C06940F00100F649C8610846806940F051
:10167000040088610846806940F008008861F148EC
:10168000006820F07040EF4908600846006840F0AC
:1016900080400860EC48006820F47040EA49086027
:1016A0000846006840F4804008604FF08040808920
:1016B00040F001004FF0804188810846808940F069
:1016C0004000888101231C2203211846FEF784FE76
:1016D00000204FF0804108854FF6FF70888508464E
:1016E000008820F4407008800846008820F06000E0
:1016F00008800846008B40F0010008830846008BF4
:1017000040F4807008830846008C20F002000884B2
:101710000846008C20F0200008840846008940F02C
:10172000030008810846008840F00100088010BDD1
:1017300010B5C348C06940F00200C149C8610846FD
:10174000806940F008008861BE48001F006820F0F2
:101750007F40BC49091F08600846006840F0884087
:101760000860BA48008840F00100B849088008467F
:10177000008840F04000088001231D220321184604
:10178000FEF72AFE0020B1491C3108804FF6FF7099
:10179000091D0880AD480C38008820F44070AB4922
:1017A0000C3908800846008820F060000880A748AF
:1017B0000C30008840F00100A4490C310880084634
:1017C000008840F480700880A0481430008820F021
:1017D00002009E49143108800846008820F020004D
:1017E00008809A48001F008840F003009749091FAD
:1017F000088096480C38008840F0010093490C3965
:10180000088010BD10B58E48C06940F004008C49B6
:10181000C8610846806940F0080088618A4800680D
:1018200020F07F40884908600846006840F0884002
:1018300008608748008840F0010085490880084614
:10184000008840F04000088001231E220321184632
:10185000FEF7C2FD00207E491C3108804FF6FF7064
:10186000091D08807A480C38008820F440707849B7
:101870000C3908800846008820F060000880744811
:101880000C30008840F0010071490C310880084696
:10189000008840F4807008806D481430008820F083
:1018A00002006B49143108800846008820F02000AF
:1018B00008806748001F008840F003006449091F42
:1018C000088063480C38008840F0010060490C39FA
:1018D000088010BD10B55A48C06940F0080058494A
:1018E000C8610846806940F0040088615548001FBF
:1018F000006820F0FF005349091F0860084600688F
:1019000040F044000860C804808940F00100C90428
:1019100088810846808940F0400088810123322276
:1019200003211846FEF758FD00204A4908804FF66B
:10193000FF70091D088047482838008820F440704F
:101940004449283908800846008820F06000088053
:1019500040481038008840F001003E4910390880A6
:101960000846008840F4807008803A4808380088AB
:1019700020F002003749083908800846008820F026
:101980002000088033482038008840F003003149A7
:10199000203908802F482838008840F001002D4960
:1019A0002839088010BD0146022906D003290DD030
:1019B000042914D0052924D11AE04FF08042928CDA
:1019C00010B200224FF080439A841CE01F4A183264
:1019D000128810B200221D4B18331A8013E01C4AE3
:1019E0001832128810B20022194B18331A800AE0FC
:1019F000184A121F128810B20022164B1B1F1A80A1
:101A000001E0002000BF00BF70474FF08040008A17
:101A10004FF08040008A20F001004FF080410882A2
:101A200070470A48001D00880848001D008820F003
:101A300001000649091D08807047000000000140B0
:101A40000010024004080140000C01400C0400405A
:101A50000C080040280C004008480088074800880F
:101A600020F00100054908807047054800880448B7
:101A7000008820F0010002490880704710080040EB
:101A8000100C0040F748806940F00800F549886173
:101A9000F548006820F47F40F34908600846006874
:101AA00040F44C500860704710B5EF48006820F4CF
:101AB0007040ED4908600846006840F440500860F6
:101AC0000120EA490860EA48D0F82C0108B9002052
:101AD00010BD0120E549091F0860FEF729FC002020
:101AE000E349C1F8AC01E1488038006808B1002042
:101AF000EEE70120FEF71CFC0020DC49091F08600E
:101B00000120E5E710B5D848006820F47040D649B8
:101B100008600846006840F4405008600020D3493F
:101B2000091F0860D249C1F8AC010120FEF700FC92
:101B30000120CE49091F0860CD49C1F8AC01FEF76C
:101B4000F7FB10BD10B50024C748006820F47040B2
:101B5000C54908600846006840F40040086001205C
:101B6000C2490860FEF7E4FB0120C149C1F8A801A1
:101B7000FEF7DEFB0AE0601CC4B2322C03DDFFF787
:101B8000C1FF002010BD0120FEF7D2FBB74880380E
:101B900000680028EFD1B549091F08600120F1E76E
:101BA00010B50020B149091F0860AF48006820F453
:101BB0007040AD4908600846006840F44050086035
:101BC0000020AB49C1F8AC010120FEF7B1FB0120B8
:101BD000A649091F0860FEF7ABFB0020A449C1F825
:101BE000A80110BD10B50020A049091F08609E483B
:101BF000006820F470409C4908600846006840F482
:101C00004050086001209A49C1F8AC01FEF790FBF2
:101C100001209649091F0860FEF78AFB00209449BD
:101C2000C1F8A80110BD70B504468F48006820F4C3
:101C300070408D4908600846006840F440500860D4
:101C400000208A49091F0860002516E0E00987493D
:101C500008606006040E0120FEF76AFB012084493B
:101C6000C1F8A801FEF764FB00208049091F086045
:101C70000120FEF75DFB681CC5B2082DE6DB70BDD8
:101C80002DE9F04105460E4617469846FFF70CFF32
:101C900010B90120BDE8F0816906080EFFF7C3FF07
:101CA000FFF750FF18B9FFF72DFF0120F2E730468C
:101CB000FFF7B9FFFFF746FF00240BE018F8040018
:101CC000FFF7B1FFFFF73EFF18B9FFF71BFF00203A
:101CD000E0E7641CBC42F1DBFFF714FF0020D9E70A
:101CE00070B5054600246048006820F470405E49E5
:101CF00008600846006840F400400860002617E0CD
:101D000000205A49091F08600220FEF711FB01203C
:101D10005749C1F8A8016006040E5448803800688D
:101D200008B1601CC4B20220FEF702FB701CC6B2F0
:101D3000082EE5DB15B1FFF733FF01E0FFF752FF97
:101D4000204670BD2DE9F04106460F4614461D465B
:101D5000FFF7AAFE10B90120BDE8F0817106080E58
:101D6000FFF761FFFFF7EEFE18B9FFF7CBFE01208A
:101D7000F2E73846FFF757FFFFF7E4FEFFF794FE60
:101D8000012101EB4601C8B2FFF74DFFFFF7DAFE74
:101D90000DE0012C04D10020FFF7A2FF287003E022
:101DA0000120FFF79DFF28706D1C601EC4B2002C3F
:101DB000EFD1FFF7A7FE0020CEE770B505460E462F
:101DC0000024FFF771FE2846FFF72DFF641CFFF784
:101DD000B9FE3046FFF727FF641CFFF7B3FEFFF79D
:101DE00063FE691CC8B2FFF71EFF641CFFF7AAFE62
:101DF0000020FFF775FF0446FFF784FE204670BD04
:101E00002DE9F0410746884615461E460024FFF797
:101E10004BFE3846FFF707FFFFF794FE4046FFF7FB
:101E200002FFFFF78FFEFFF73FFE791CC8B2FFF7F6
:101E3000FAFEFFF787FE00BF0DE0681EA04204D047
:101E40000120FFF74DFF305503E00020FFF748FF6A
:101E50003055601CC4B2AC42EFDBFFF753FE2046A6
:101E6000BDE8F08100100240040C0140AC81214229
:101E7000008021422DE9F04180460D4616461F465E
:101E80000024FFF711FE4046FFF7CDFEFFF75AFE94
:101E90002846FFF7C8FEFFF755FE00BF06E0385D95
:101EA000FFF7C1FEFFF74EFE601CC4B2B442F6DB82
:101EB000FFF728FE0120BDE8F08170B505460E460B
:101EC000144631462846FFF778FF2070012070BD88
:101ED00037B504460D4602AB012229462046FFF7DE
:101EE000C9FF3EBD2DE9F8430746884614461D4606
:101EF000089E6A4641463846FFF7DFFF28B3601C5C
:101F0000FF2101FA00F0C4F108012944491EFF2213
:101F10000A41104300F0FF09C5F1080006FA00F07D
:101F2000C6B2C4F1070006419DF8000000EA0900AE
:101F300000909DF80000304300909DF8002041463D
:101F40003846FFF7C5FFBDE8F8830020FBE7F8B58A
:101F500006460F4614461D466A4639463046FFF788
:101F6000ACFF2DB10120A0409DF80010084305E012
:101F70000120A0409DF8001021EA0000C0B20090AE
:101F80009DF8002039463046FFF7A2FFF8BD00005B
:101F900010B51248806940F0080010498861104867
:101FA000006820F070400E4908600846006840F064
:101FB000004008600A480830006840F400400849C2
:101FC0000831086001220F211046FEF73FFA022374
:101FD000282201211846FEF7FFF910BD001002402B
:101FE000040C01404549088000BF4449091F098885
:101FF00001F040010029F8D070472DE9F05F054657
:102000000E46300106F0CAFF81463D4905FB01F04E
:1020100006F0C4FF8246494606F076FE074638467B
:1020200006F084FF84B2204606F0B8FF83463946A6
:1020300007F0F9F882464FF0834106F0F7FF81463A
:1020400006F074FF80464FF6FF7000EA041404EBBC
:10205000080084B22B48806940F00100294988615A
:102060000846806940F0100088610846C06940F465
:102070008020C8612448406820F47F40224948609D
:102080000846406840F40B4048600846C06840F489
:102090008060C8601D48406840F010001B494860DF
:1020A0001848006940F48020164908610846006914
:1020B00020F4802008611148001D0480001D008864
:1020C00042F20C0108430D49083108800846008897
:1020D00040F4807008800846008840F020000880A6
:1020E0000223272201210020FEF776F9BDE8F09FA8
:1020F0000248001F0088002070470000044800408C
:1021000040420F000010024000100140000001405A
:102110002DE9F04F8DB004468946924651464FF066
:102120007E5006F083FF074684F00046394630466D
:1021300006F07CFD054606F0DDFEFC4908605146D0
:102140004FF07E5006F072FF834606F043FD0546D1
:102150000E46484606F03EFDCDE904010020F44954
:1021600005F026FF00224FF08043CDE9000106F084
:1021700033F8CDE90201DDE9042306F01BFACDE9CD
:1021800008014FF07C51204606F050FF834606F0D0
:1021900021FDCDE90601DDE9082306F031FC074603
:1021A0002A46334605F05CFFCDE90A0106F06CF9DA
:1021B000E049086051464FF07E5006F037FF054673
:1021C00006F008FDCDE90801484606F003FDCDE91B
:1021D00002010020D64905F0EBFE074600224FF031
:1021E000804305F0F9FFCDE90001DDE9022306F0A7
:1021F000E1F9CDE904014FF07C51204606F016FFCD
:10220000074606F0E7FC0546DDE9042305F028FF54
:10221000CDE90601DDE9082305F022FFCDE90A0139
:1022200006F032F9C44908600DB0BDE8F08F2DE921
:10223000F74F82B0834692464FF08041584606F0F1
:10224000F5FE0546039906F0F9FF0446514606F0EF
:10225000F5FFBA4908600020B54905F0A9FE064619
:102260000F465046039906F0E9FF019006F0B2FCD4
:10227000804632463B4606F09DF9044605F0BEFE18
:10228000AF4908605846039906F0D0FC0446514611
:1022900006F0CCFCAB49086005B0BDE8F08FF0B5A6
:1022A0004FF4AF731C461D46002806DDC618A64F26
:1022B0003E800026A54F3E6007E000F5E156F61A85
:1022C000A14F3E800126A14F3E60002909DDC1F5E6
:1022D000E156361B9C4F3F1D3E8001269C4F3E60C1
:1022E00007E04E422644984F3F1D3E800026984FFF
:1022F0003E60002A08DD5619934F08373E800026BD
:10230000924F3F1D3E6009E002F5E156761B8E4F6D
:1023100008373E8001268D4F3F1D3E60F0BD70B5F1
:10232000054640F6AC0085421ADB8A480078B8B909
:1023300089498A48006806F045FE11D388498748D4
:10234000006806F03FFF0BD383498648006806F01B
:1023500039FE05D382498348006806F033FF13D263
:102360000124002078490880091D0880091D088083
:10237000764908607C49C1F880017449091D0860EC
:1023800001207449087000E00024204670BD6749B0
:1023900009684242914202DA4142644A116063494B
:1023A0000968814201DD6149086062490968424269
:1023B000914202DA41425F4A11605E4909688142F6
:1023C00001DD5C4908605C4909684242914202DAD9
:1023D0004142594A116058490968814201DD564914
:1023E000086070472DE9F14F6048007801280FD14F
:1023F0005F48007806F0D2FD05465E48006880F030
:1024000000442946204606F07FFC5B49086013E043
:102410005A48007801280CD15548007806F0BEFDD6
:10242000044621465348006806F06EFC5249086095
:1024300002E0002050490860009806F097FD5049DE
:1024400008605048006806F0C5FB06464FF066324B
:102450004D4B06F0AFF8044605F0D0FD4949086041
:102460004748006806F0B6FB80464FF03332474BD2
:1024700006F0A0F804460D464248006806F0AAFBA4
:10248000064622462B4605F0EBFD824605F0B6FDDA
:102490003C490860084601683D48006806F0C6FBF4
:1024A0003B490860344801683948006806F0BEFBC3
:1024B0003749086037493648006806F083FE02D283
:1024C00034483349086034493148006806F07AFDE1
:1024D00002D231482E490860304801682C48006813
:1024E00006F0A4FD06462E4906F00EFC04462D48D3
:1024F00001682448006806F099FD06462A4906F05E
:1025000003FC0546214606F091FB28490860114866
:10251000007820B100201E4908601A49086023484D
:10252000006806F0E7FCBDE8F88F000024000020FA
:1025300000000840280000202C000020300000206F
:102540003400002038000020343401409001224241
:102550008081214200000020000020C250000020A5
:102560000000204254000020008021421000002082
:102570004A0000202401002020010020110000203A
:10258000180100201C0100206666E63F3333D33F6C
:102590002801002000470649004706C99000002096
:1025A00000409C458C0000200000C842140100201F
:1025B0002DE9F14FFE48007801280CD1FD48007844
:1025C00006F0ECFC04462146FB48006806F09CFB44
:1025D000FA49086016E0FA48007801280FD1F5485A
:1025E000007806F0DBFC0546F348006880F0004404
:1025F0002946204606F088FBF049086002E00020EA
:10260000EE490860009806F0B1FCEE490860EE481B
:10261000006806F0DFFA06464FF06632EB4B05F035
:10262000C9FF044605F0EAFCE7490860E548006890
:1026300006F0D0FA80464FF03332E54B05F0BAFF92
:1026400004460D46E048006806F0C4FA06462246F5
:102650002B4605F005FD824605F0D0FCDA490860FE
:1026600008460168DB48006806F0E0FAD9490860CE
:10267000D2480168D748006806F0D8FAD549086002
:10268000D549D448006806F09DFD02D2D248D14910
:102690000860D249CF48006806F094FC02D2CF48C7
:1026A000CC490860CE480168CA48006806F0BEFC04
:1026B0000646CC4906F028FB0446CB480168C248D0
:1026C000006806F0B3FC0646C84906F01DFB054647
:1026D000214606F0ABFAC6490860C648007820B12A
:1026E0000020BC490860B8490860C148006806F08D
:1026F00001FCBDE8F88F2DE9FE4F07468846BE482D
:10270000007801280CD1AB48007806F047FC8146E0
:102710004946BA48006806F0F7FA0446002519E071
:10272000B748007801280FD1A248007806F036FC9F
:102730008246B248006880F000495146484606F09B
:10274000E3FA0446002505E00024AE48006806F0E0
:10275000D1FB05462146384606F070FD029028461A
:1027600006F004FC4146009006F060FC83469F4959
:1027700006F0CAFA8246A4480299006806F056FCA0
:102780008346A24906F0C0FA5146019006F04EFA7F
:10279000814606F0AFFB06463046BDE8FE8F2DE9C8
:1027A000F05F04460D46264699480168284606F023
:1027B0003DFC83468D4906F0A7FA8146314695488F
:1027C000006806F033FC8246494606F02FFA804640
:1027D00006F090FB07463846BDE8F09F2DE9F05F14
:1027E00004460D4626468C480168284606F01EFC25
:1027F00083467E4906F088FA81463146874800685C
:1028000006F014FC8246494606F010FA804606F0AF
:1028100071FB07463846BDE8F09F70B54B20FEF7C8
:1028200075FA0446FEF7E1FA0546012C07D1714816
:10283000007808B9012000E000206E490870022CE1
:1028400007D17748007808B9012000E000207449DA
:102850000870012D07D17348007808B9012000E005
:1028600000207049087070BD70B56F48006800287E
:102870007ED14FF400406D4908606D480078012812
:102880000BD16C480078401CC0B26A4908700A2815
:1028900003D100200870664908706748007808B9BD
:1028A000012000E0002064490870084600780128F3
:1028B00038D103F02BFAFFF7B0FF5A48007818B967
:1028C0006420FEF7E3F902E00020FEF7DFF9FEF7EF
:1028D000B2FD054606F04AFB04465848016820460A
:1028E00006F0A4F9554908604FF07E51544800683D
:1028F00006F09CF95249044608603C4906F0C6FAC5
:102900000ED13A494D48006806F0FEF9044606F03B
:10291000F1FA4C49086000204849086048490860BD
:10292000002070BD0220FFF73EF840424649086093
:102930000320FFF738F84042444908600420FFF7BD
:1029400032F84042424908604248006806F00EFBF7
:10295000054641480168284606F065FC044606F035
:10296000C9FA3E4908603E48006806F0FFFA00E0F8
:102970001BE105463B480168284606F054FC044626
:1029800006F0B8FA384908603148006806F0EEFAF7
:1029900004462E48006806F0E9FA05462A48006811
:1029A00006F0E4FA064622462946FFF740FC5DE0C1
:1029B000120000204A0000200C0100200801002025
:1029C0001300002000010020040100206666E63F9D
:1029D0003333D33F1001002000470649004706C9A2
:1029E0008800002000409C45840000200000C84270
:1029F000FC0000200000002014000020F80000204F
:102A000015000020980000209400002000002041C4
:102A1000800000207C00002078000020740000204E
:102A200002000020010000203C81214214040140EA
:102A30004900002048000020D9000020E0000020CC
:102A4000DC000020440000200400002008000020DA
:102A50000C0000209C00002050000020A40000205A
:102A6000A000002054000020A80000206948016850
:102A70006948006806F0DAF8674908606748016845
:102A80006748006806F0D2F86549086003F03EF92F
:102A90006448006806F06AFA044663480168204604
:102AA000FFF79CFE614908606148006806F05EFA25
:102AB0000446604801682046FFF771FE5E490860E1
:102AC0005E4801685E480068FFF715FE40425D49B8
:102AD00008605D480078401CC0B25B49087004285B
:102AE00014D14C48006806F005FA0446FFF760FD73
:102AF000564908604948006806F0FCF90446FFF7AB
:102B000071FC5349086000204F4908704749096823
:102B10004E4A1268881806F029FA4E49086046495C
:102B200009684B4A1268881806F020FA4A4908607A
:102B30004448006806F01AFA4849086008460268E6
:102B40004548016843480068FFF7E2FA40F6B830AC
:102B5000FFF71DFC4248006842490860424800688F
:102B6000424908604248006842490860424800689B
:102B7000FFF7D5FB38B93F4802683C48016839483F
:102B80000068FFF78CFB3D48007870B13C48006856
:102B900006F0B0F93B4908603B48006806F0AAF926
:102BA0003A4908600020354908700020B9E630B580
:102BB0002C4C24684542AC4202DA4442294D2C6038
:102BC000284C2468844201DD264C2060274C246870
:102BD0004D42AC4202DA4C42244D2C60234C246816
:102BE0008C4201DD214C2160224C24685542AC42CC
:102BF00002DA54421F4D2C601E4C2468944201DDC1
:102C00001C4C226030BD0146002901DA484200E038
:102C100008467047300000203C00002034000020AF
:102C200040000020A40000205C000020E400002000
:102C3000A800002064000020EC00002060000020BC
:102C400038000020F4000020D8000020E800002018
:102C5000F0000020680000206C00002070000020C0
:102C60002400002018000020280000201C00002064
:102C70002C00002020000020440000200200002042
:102C800054000020A0000020500000209C000020E4
:102C900038B50446FB4890F82400C0B114B10220B6
:102CA000009001E000200090F64A1268D17BF54ABE
:102CB000526810786B460122FEF7E2FF10B14FF028
:102CC000FF3038BD9DF80010EE48417423E0ED4818
:102CD000807A10B94FF0FF30F3E724B1E948407C27
:102CE00008B10020EDE714B10120009001E00020C0
:102CF0000090E44A1268D17BE24A526810786B4631
:102D00000122FEF7BDFF10B14FF0FF30D9E79DF86B
:102D10000010DC4841740020D3E738B5002419E0E6
:102D2000D8480068C07AA04204D0D6480068407DE8
:102D3000A04200D10CE0D349496808786B460122D3
:102D40002146FEF7FFFF10B14FF0FF3038BD00BF46
:102D5000601CC4B2CB4840680079A042E0DC00208F
:102D6000F4E770B504460D46C6480068C07AA04234
:102D700004D0C4480068407DA04202D14FF0FF302B
:102D800070BDC04840680079A04202DC4FF0FF30BF
:102D9000F6E7BC49496808782B4601222146FEF730
:102DA000D1FFEDE738B50446B64890F82300A042BD
:102DB00001D1002038BD14B13020009001E0002086
:102DC0000090B048807C20B19DF8000040F00200E7
:102DD0000090AC4890F8220020B19DF8000040F02F
:102DE00080000090A74A1268117DA64A52681078A8
:102DF0006B460122FEF744FF10B14FF0FF30D9E7D8
:102E0000A04880F823400020D4E738B5044604F0F9
:102E1000700010B10120009005E014B10020009076
:102E200001E040200090974A1268917C954A5268D0
:102E300010786B460122FEF723FF20B10021914854
:102E40008172481E38BD9DF8000020F040018D4879
:102E500001730020009004F0400020B99DF80000AC
:102E600040F00400009004F0200020B99DF800001C
:102E700040F00200009004F0100020B99DF800001E
:102E800040F00100009004F0080020B99DF8000017
:102E900040F0380000907B4A1268D17C794A526831
:102EA00010786B460122FEF7EBFE20B10021754839
:102EB0008172481EC6E724B1082C02D00020FFF71B
:102EC00071FF70488472002101753220FDF74CFAC1
:102ED0000020B7E738B504466A48807CA04201D19B
:102EE000002038BD002C46D0664A12681179654A28
:102EF000526810786B460122FEF724FF10B14FF0A4
:102F0000FF30EEE79DF8000020F0200000905D4AC1
:102F1000126811795B4A526810786B460122FEF7FD
:102F2000AFFE10B14FF0FF30DBE70320FDF71CFAD6
:102F300002200090534890F8220020B19DF8000034
:102F400040F0800000904F4890F8230020B19DF899
:102F5000000040F0300000904A4A1268117D494A52
:102F6000526810786B460122FEF78AFE002851D085
:102F70004FF0FF30B5E7434A12681179414A526871
:102F800010786B460122FEF7DDFE10B14FF0FF30E6
:102F9000A7E73C48807A00F0010028B19DF80000C6
:102FA00040F02000009004E09DF8000020F0200098
:102FB0000090344A12681179324A526810786B4690
:102FC0000122FEF75DFE10B14FF0FF3089E70320CC
:102FD000FDF7CAF92B4890F8220010B1802000902C
:102FE00001E000200090274890F8230020B19DF8D0
:102FF000000040F030000090224A1268117D214A02
:10300000526810786B460122FEF73AFE10B14FF07D
:10301000FF3066E71B488474002062E708B5194852
:10302000807A10B94FF0FF3008BD00200090154A9B
:103030001268D17B134A526810786B460122FEF762
:103040001FFE10B14FF0FF30EEE70E4A12685179C3
:103050000C4A526810786B460122FEF711FE10B13F
:103060004FF0FF30E0E7074A12681179054A5268CD
:1030700010786B460122FEF703FE28B14FF0FF30B7
:10308000D2E700002C010020F74890F82400002827
:1030900050D00C200090F44A12681179F24A52681C
:1030A00010786B460122FEF7EBFD10B14FF0FF30B8
:1030B000BAE7C0200090EC48807A00F0010020B10F
:1030C0009DF8000040F020000090E74A1268117956
:1030D000E54A526810786B460122FEF7D1FD10B127
:1030E0004FF0FF30A0E7E048407C10B10220009094
:1030F00001E000200090DC4A1268D17BDA4A526875
:1031000010786B460122FEF7BBFD10B14FF0FF3087
:103110008AE700200090D44A12685179D24A526856
:1031200010786B460122FEF7ABFD002852D04FF01D
:10313000FF3079E704200090CB4A12681179CA4A1F
:10314000526810786B460122FEF79AFD10B14FF0DD
:10315000FF3069E7C448807C20B9C348807A00F01A
:10316000010010B94020009001E060200090BE4AAC
:1031700012681179BC4A526810786B460122FEF73A
:103180007FFD10B14FF0FF304EE7B748407C10B1E3
:103190000120009001E000200090B34A1268D17B2A
:1031A000B14A526810786B460122FEF769FD10B1F2
:1031B0004FF0FF3038E7AC4A12685179AA4A52689A
:1031C0001078A94B10330122FEF75AFD10B14FF0D1
:1031D000FF3029E7002027E770B50446002624F0D9
:1031E0000104A14890F8240008B1002070BD9E4859
:1031F000807A10B94FF0FF30F8E79B48057C807A61
:103200002040994908740846007CA04202D04FF043
:10321000FF3600E0002614B99348007D18B1012064
:10322000FFF736FD02E00020FFF732FD3CB1FFF76B
:10323000F5FE20B18C4805744FF0FF30D6E73046DC
:10324000D4E738B504468848807A10B94FF0FF308B
:1032500038BDBC2C02DB0120009015E0622C02DBA3
:103260000220009010E02A2C02DB032000900BE0EB
:10327000142C02DB0420009006E00A2C02DB05205F
:10328000009001E0062000907748C07A9DF8001079
:10329000884201D10020DBE7734A12689178724AB4
:1032A000526810786B460122FEF7EAFC10B14FF02D
:1032B000FF30CDE79DF800106B48C1720020C7E7D2
:1032C00038B50446282C02DD4FF0FF3038BDDCB99C
:1032D0000020FFF767FD00208DF8000007208DF823
:1032E0000100614A1268917C5F4A526810786B460F
:1032F0000222FEF7C5FC10B14FF0FF30E6E70021D7
:10330000594801750020E1E70120FFF74BFD20201F
:103310008DF80000012C06D100208DF80100052059
:10332000FFF78FFF17E0052C06DC01208DF8010068
:103330000520FFF786FF0EE0142C06DC02208DF836
:1033400001000A20FFF77DFF05E003208DF8010052
:103350001420FFF776FF9DF80100072101EB801094
:10336000C0B28DF80100404A1268917C3E4A526812
:1033700010786B460222FEF783FC10B14FF0FF304D
:10338000A4E70821384881720021017301210175E9
:103390000020FFF721FF002098E738B504463248A7
:1033A000807A10B94FF0FF3038BD2F4890F82400D4
:1033B00010B14FF0FF30F7E72B48007D50B134B12A
:1033C000282C04DCE0B2FFF77BFF0020ECE70020B4
:1033D000FFF776FF042C01DA042404E0B4F57A7FC9
:1033E00001DD4FF47A744FF47A7090FBF4F0401ED4
:1033F000C0B200901C4A126851781B4A526810787B
:103400006B460122FEF73CFC10B14FF0FF30CBE7DA
:103410009DF80000401C4FF47A7191FBF0F081B2EE
:103420001148C1810146C9894810FFF70AFF0020F1
:10343000BAE738B504460C48807A10B94FF0FF302F
:1034400038BD022C06D0042C07D0082C08D0102C34
:103450000FD10BE0002000900EE0082000900BE060
:103460001020009008E000002C010020182000909F
:1034700002E04FF0FF30E3E700BFF948407A9DF8E3
:103480000010B0EBE10F01D10020D9E7F44A126837
:10349000D179F34A526810786B460122FEF7F0FBAF
:1034A00010B14FF0FF30CBE79DF80000C110EC48A1
:1034B00041720020C4E738B50446E948807A10B963
:1034C0004FF0FF3038BDFA2C09D0B4F5FA7F09D09F
:1034D000B4F57A7F09D0B4F5FA6F0CD108E000207A
:1034E00000900BE00820009008E01020009005E01C
:1034F0001820009002E04FF0FF30E3E700BFD8480B
:10350000007A9DF80010B0EBE10F01D10020D9E75F
:10351000D34A12689179D24A526810786B460122D8
:10352000FEF7AEFB10B14FF0FF30CBE79DF8000087
:10353000C010CB4908720020C4E71CB580208DF86C
:103540000000C74A1268917CC54A526810786B46E1
:103550000122FEF795FB10B14FF0FF301CBD642037
:10356000FCF702FF00208DF80000BD4A1268917C34
:10357000BB4A526810786B460122FEF781FB10B1FE
:103580004FF0FF30EAE7B64A1268917DB44A5268BC
:1035900010786B460622FEF7D5FB10B14FF0FF30D6
:1035A000DCE79DF80500C007400F9DF8031001F00F
:1035B000010140EA41009DF8011001F0010140EADB
:1035C000010494B1012C03D10121A548C17431E05B
:1035D000022C03D10021A248C1742BE02146A1A0F6
:1035E00003F028FA4FF0FF30B8E79D4A1268D1780F
:1035F0009B4A526810786B460122FEF7A3FB10B17C
:103600004FF0FF30AAE79DF8000000F00F042CB93E
:103610009E4803F00FFA4FF0FF309FE7042C06D1CD
:103620009BA003F007FA01218D48C17402E000213C
:103630008B48C174FF218A488172FF208849087233
:10364000FF2187484172C1724FF6FF71C181FF218E
:10365000017481740121017380F82210002180F827
:103660002310417501751630016041608160163884
:1036700080F8241080F82510C1844FF4FA60FFF719
:103680001AFF10B14FF0FF3068E70220FFF7D1FEBC
:1036900010B14FF0FF3061E72A20FFF7D2FD10B1E3
:1036A0004FF0FF305AE73220FFF777FE10B14FF0AE
:1036B000FF3053E70020FFF78FFD10B14FF0FF30D0
:1036C0004CE70020FFF706FC10B14FF0FF3045E754
:1036D0000020FFF79AFB002040E770477CB50446C6
:1036E0000D465F48807A00F0700010B94FF0FF304F
:1036F0007CBD5B4A1268117B594A526810786B4650
:103700000622FEF71FFB10B14FF0FF30F0E79DF8E7
:1037100001009DF8001040EA012000B220809DF8D1
:1037200003009DF8021040EA012000B260809DF87D
:1037300005009DF8041040EA012000B2A08015B1F8
:103740002846FFF7CAFF0020D2E77CB504460D46A5
:103750004348807A00F0080010B94FF0FF307CBD7C
:103760003F4A1268517B3E4A526810786B460622E7
:10377000FEF7E8FA10B14FF0FF30F0E79DF80100D6
:103780009DF8001040EA012000B220809DF803005F
:103790009DF8021040EA012000B260809DF805000B
:1037A0009DF8041040EA012000B2A08015B128461F
:1037B000FFF793FF0020D2E72DE9FE4F05460C46A8
:1037C0002748807A18B94FF0FF30BDE8FE8F244AB1
:1037D0001268917B224A5268107802AB0222FEF7EF
:1037E000B1FA10B14FF0FF30EFE79DF809009DF8F6
:1037F000081040EA012006B214B12046FFF76DFF21
:1038000017494968C88805F0C9FB154901904968FE
:10381000B1F9080005F0AAFB8346304605F0A6FB87
:103820005946009005F00AFD8246019905F06CFAB0
:1038300081461F4905F0FAF980464FF08F4105F0A7
:10384000F5FB074605F056FB28600020BDE710B5E4
:1038500088B004461CB94FF0FF3008B010BD29E015
:103860002C010020556E737570706F727465642042
:10387000736F6674776172652070726F64756374BC
:10388000207265762025642E0A00000040AC0008F6
:1038900048616C662073656E7369746976697479C2
:1038A000207061727420666F756E642E0D0A0000C0
:1038B00000000C42206830B9606820B9A06810B9D7
:1038C000002008B010BDFA494968087806AB032209
:1038D0001146FEF737FA10B14FF0FF30F1E79DF8CF
:1038E0001800082101EB201000F00F00ADF80000D7
:1038F0009DF8190001EB201000F00F00ADF8020058
:103900009DF81A0001EB201000F00F00ADF8040044
:1039100020684100BDF90000403091FBF0F000B29A
:10392000ADF8100060684100BDF90200403091FB25
:10393000F0F000B2ADF81200A0684100BDF904003B
:10394000403091FBF0F000B2ADF81400D84949685E
:10395000087806AB06221146FEF7F4F910B14FF0D5
:10396000FF30AEE79DF819009DF8181040EA0120DD
:1039700000B2ADF808009DF81B009DF81A1040EA4F
:10398000012000B2ADF80A009DF81D009DF81C1042
:1039900040EA012000B2ADF80C00BDF81000BDF8FF
:1039A0000810084400B2ADF81000BDF81200BDF8D0
:1039B0000A10084400B2ADF81200BDF81400BDF8BA
:1039C0000C10084400B2ADF81400BDF81000000A55
:1039D0008DF81800BDF81000C0B28DF81900BDF8C0
:1039E0001200000A8DF81A00BDF81200C0B28DF85E
:1039F0001B00BDF81400000A8DF81C00BDF814006F
:103A0000C0B28DF81D00AA494968087806AB0622A5
:103A10001146FEF735F910B14FF0FF3051E70020A5
:103A20004FE70146A248007A30B1012807D00228AA
:103A300009D003280FD10AE0FA2008800EE04FF4E5
:103A4000FA7008800AE04FF47A70088006E04FF4BC
:103A5000FA60088002E00020088000BF00BF00205C
:103A6000704701469248407A30B1012807D00228B9
:103A700008D003280CD108E0022008700BE00420D5
:103A8000087008E00820087005E01020087002E0C7
:103A90004FF0FF30704700BF8548C07C18B10878F0
:103AA0004006000E08700020F4E701468048C07A06
:103AB000082817D2DFE800F01704070A0D101318C2
:103AC000BC20088013E06220088010E02A200880D3
:103AD0000DE0142008800AE00A20088007E0052095
:103AE000088004E000BF00BF0020088000BF00BFC6
:103AF0000020704701466E4890F8240010B14FF046
:103B0000FF3070476A48C08908800020F9E7014605
:103B100000200880401E704701464FF0FF3070477C
:103B200001466348007A30B1012807D0022808D046
:103B300003280CD108E05F4808600BE05E4808608D
:103B400008E05E48086005E05D48086002E04FF06C
:103B5000FF30704700BF0020FBE701465448407A21
:103B600030B1012808D002280AD0032810D10BE078
:103B70004FF4804008800EE041F69C7008800AE017
:103B80004FF48050088006E04FF40060088002E0A7
:103B90004FF0FF30704700BF4548C07C10B1088827
:103BA000401008800020F5E701464148007C08707D
:103BB0000020704701463E48807A10B1012008700D
:103BC00001E0002008700020704738B504463848EE
:103BD000807A10B94FF0FF3038BD354A1268117C39
:103BE000334A526810786B460222FEF7ABF810B1E8
:103BF0004FF0FF30F0E79DF801009DF8001040EA1B
:103C0000012000B220800020E6E72DE9FE4F0746A4
:103C1000884692461D46DDF830B000260024244830
:103C200090F8240010B1601EBDE8FE8F00202870BF
:103C30001F48807A10B94FF0FF30F5E71C48007C30
:103C400010B94FF0FF30EFE71948007C00F040005A
:103C500008B1B01CC6B21648007C00F0200008B1C4
:103C6000B01CC6B21248007C00F0100008B1B01CB5
:103C7000C6B20F48007C00F0080008B1B01DC6B203
:103C80000B4A1268917A0A4A526810786B460222EF
:103C9000FEF758F810B14FF0FF30C5E79DF801006E
:103CA0009DF8001040EA0129B1450BDA0020BBE77E
:103CB0002C01002000000343000083423333034201
:103CC00033338341FC4840684088B9EB600F17DD0F
:103CD000F94A1268517CF84A526810786B46012202
:103CE000FEF730F810B14FF0FF309DE79DF800006F
:103CF00000F0100020B1FFF791F96FF0010093E799
:103D00005046FFF7EAFCEC4A1268D17AEA4A526858
:103D100010786B463246FEF715F810B14FF0FF30C1
:103D200082E799FBF6F0401E8BF800000020287017
:103D3000B4422AD0E048007C00F0080028B3601CA0
:103D40001DF800001DF8041040EA012000B2A8F898
:103D50000000E01C1DF80010A01C1DF8000041EA46
:103D6000002000B2A8F80200601D1DF80010201D00
:103D70001DF8000041EA002000B2A8F804002878ED
:103D800040F008002870A01D84B2B44213D0CA4885
:103D9000007C00F0400070B1601C1DF800001DF8B0
:103DA000041040EA012000B23880287840F040003A
:103DB0002870A01C84B2B44213D0BF48007C00F02D
:103DC000200070B1601C1DF800001DF8041040EACE
:103DD000012000B27880287840F020002870A01CD4
:103DE00084B2B44213D0B448007C00F0100070B12B
:103DF000601C1DF800001DF8041040EA012000B20C
:103E0000B880287840F010002870A01C84B20020F0
:103E10000AE7F8B504460F461646A74890F824006E
:103E200010B94FF0FF30F8BDA348807A10B94FF0B9
:103E3000FF30F8E7A04A1268917A9F4A52681078DA
:103E40006B460222FDF77EFF10B14FF0FF30EAE72C
:103E50009DF801009DF8001040EA0125A54203DA13
:103E600000203070401EDEE7934840684088B5EB84
:103E7000600F17DD904A1268517C8F4A52681078A3
:103E80006B460122FDF75EFF10B14FF0FF30CAE72D
:103E90009DF8000000F0100020B1FFF7BFF86FF0B0
:103EA0000100C0E7E2B2844B1B68D97A824B5B68A1
:103EB00018783B46FDF746FF10B14FF0FF30B2E7F0
:103EC00095FBF4F0401E30700020ACE701467A48C4
:103ED00080F82210002070477CB505467649496875
:103EE000087801AB04220D21FDF72CFF08B1072053
:103EF0007CBD9DF80700C0F301109DF8041001F08F
:103F0000E00140EAE1008DF800009DF80700C0F3F1
:103F100081009DF8051001F0E00140EAE1008DF814
:103F200001009DF8070000F003009DF8061001F065
:103F3000E00140EAE1008DF8020000241CE01DF8D9
:103F4000040018B9002045F8240013E05B4845F848
:103F5000240006E055F82400594905F067F845F8B3
:103F600024001DF80400401EC0B20DF80400002813
:103F7000F0D100BF601CC4B2032CE0DB0020B7E727
:103F80002DE9FE4F06460F4600256846FFF7A4FFC1
:103F9000002442E056F8240057F82410A0EB010A50
:103FA000BAF1000F01DB514601E0CAF100010846F9
:103FB00004F0DCFF83464FF08F4104F0A5FE8046FD
:103FC0005DF82400002104F061FF16D05DF8241094
:103FD000404604F099FE82464FF07E5105F02EF9DE
:103FE000814629F0004A3748416A504605F0EAF810
:103FF00012D20120A04005430EE03248C16940467C
:1040000004F0E0FF05D32F48016A404605F0DAF8D6
:1040100002D20120A0400543641C032CBADB2846D1
:10402000BDE8FE8F2DE9FC5F06460F4600252249BC
:104030004968087801AB03220D21FDF783FE10B11A
:104040000720BDE8FC9F9DF8040000F01F008DF8DC
:1040500004009DF8050000F01F008DF805009DF894
:10406000060000F01F008DF80600002462E056F8FC
:10407000240057F82410A0EB010BBBF1000F01DB6B
:10408000594601E0CBF10001084604F06FFF4FF004
:104090008F41009004F038FE814601A8005DC0B356
:1040A0000849086804F07AFF83465946064804F038
:1040B0002BFE80460FE000002C0100207B14AE3E5A
:1040C0001D5A843FA49E000800B04C45FE4940465E
:1040D00004F0ACFF804601A8005D401EC0B201A9FB
:1040E00008550028F2D14146484604F00DFE8346AB
:1040F0004FF07E5105F0A2F882462AF0004BF348BB
:104100008169584605F05EF813D20120A0400543AE
:104110000FE0FFE7ED480169484604F053FF05D37F
:10412000EA484169484605F04DF802D20120A04016
:104130000543641C032C9ADB284682E72DE9F04FE7
:1041400087B005460C46914601208DF810000020EE
:104150008DF81100DE4A1268917CDD4A52681078B1
:1041600004AB0222FDF78CFD20B14FF0FF3007B009
:10417000BDE8F08FC820FCF7F7F800208DF810009C
:10418000D34A1268D17BD24A5268107804AB01221C
:10419000FDF776FD10B14FF0FF30E8E7CC4A12682A
:1041A0005179CB4A5268107804AB0122FDF768FDC3
:1041B00010B14FF0FF30DAE7C54A1268917CC44A6B
:1041C0005268107804AB0122FDF75AFD10B14FF090
:1041D000FF30CCE7BE4A1268D17DBD4A52681078E4
:1041E00004AB0122FDF74CFD10B14FF0FF30BEE7EC
:1041F000B74A12681179B64A5268107804AB0122A6
:10420000FDF73EFD10B14FF0FF30B0E70C208DF808
:104210001000AF4A12681179AD4A5268107804ABA9
:104220000122FDF72DFD10B14FF0FF309FE70F2069
:10423000FCF79AF8A648806A407A8DF81000A44AE4
:1042400012689178A24A5268107804AB0122FDF7F7
:1042500017FD10B14FF0FF3089E79D48806A007A62
:104260008DF810009A4A12685178994A526810786D
:1042700004AB0122FDF704FD10B14FF0FF3076E7EB
:10428000B9F1000F07D09248806A807A40F0E000D0
:104290008DF8100004E08E48806A807A8DF8100056
:1042A0008B4A126891798A4A5268107804AB0122CD
:1042B000FDF7E6FC10B14FF0FF3058E7B9F1000F01
:1042C00007D08348806AC07A40F0E0008DF8100083
:1042D00003E07E48C07A8DF810007D4A1268D179DB
:1042E0007B4A5268107804AB0122FDF7C9FC10B17B
:1042F0004FF0FF303BE7B9F1000F02D0C820FCF7C8
:1043000033F840208DF81000714A12681179704A14
:104310005268107804AB0122FDF7B2FC10B14FF0E7
:10432000FF3024E778208DF81000694A126851792F
:10433000674A5268107804AB0122FDF7A1FC10B166
:104340004FF0FF3013E761498889FCF70DF8002032
:104350008DF810005E4A126851795D4A52681078F3
:1043600004AB0122FDF78CFC10B14FF0FF30FEE6EC
:10437000574A1268917A564A5268107804AB022262
:10438000FDF7E0FC10B14FF0FF30F0E69DF81100B2
:104390009DF8101040EA012B0C209BFBF0F0C6B2F8
:1043A0000020A86068602860A0606060206082468D
:1043B00065E0474A1268D17A454A5268107804ABE2
:1043C0000C22FDF7BFFC10B14FF0FF30CFE69DF897
:1043D00011009DF8101040EA012000B2ADF808006D
:1043E0009DF813009DF8121040EA012000B2ADF8CC
:1043F0000A009DF815009DF8141040EA012000B253
:10440000ADF80C00BDF90810206808442060BDF923
:104410000A10606808446060BDF90C10A068084488
:10442000A0609DF817009DF8161040EA012000B228
:10443000ADF800009DF819009DF8181040EA012021
:1044400000B2ADF802009DF81B009DF81A1040EA7A
:10445000012000B2ADF80400BDF90010286808443E
:104460002860BDF90210686808446860BDF904104E
:10447000A8680844A8600AF1010000F0FF0AB245EC
:1044800097DB1248D0F800C02868C117090441EA38
:104490001041070462460023384602F0A6FA32466D
:1044A0000023CDE9020102F0A0FA28600748D0F805
:1044B00000C06868C117090441EA10410704624658
:1044C0000023384606E0000054E3853FA49E000820
:1044D0002C01002002F089FA32460023CDE90201C6
:1044E00002F083FA6860FE48D0F800C0A868C117DF
:1044F000090441EA1041070462460023384602F0ED
:1045000074FA32460023CDE9020102F06EFAA86087
:10451000F348D0F804C02168C817000440EA1148E5
:104520000F04624600233846414602F05EFA3246E6
:104530000023CDE9020102F058FA2060E848D0F8E3
:1045400004C06068C117090441EA104107046246CB
:104550000023384602F049FA32460023CDE9020131
:1045600002F043FA6060DE48D0F804C0A068C117CA
:10457000090441EA1041070462460023384602F06C
:1045800034FA32460023CDE9020102F02EFAA0608F
:10459000A068002804DDA068A0F58030A06003E0DA
:1045A000A06800F58030A0600020E0E538B5044642
:1045B000CC4890F82400A04201D1002038BD24B39B
:1045C000C84890F8250010B94FF0FF30F6E70020FA
:1045D000FEF75EFB0020FEF77DFCC249C88CFEF7AB
:1045E000DCFE00200090BF49496808786B46012234
:1045F0002321FDF745FB0121BA4880F82410012052
:10460000FEF746FBFEF70AFD13E00020FEF740FB35
:10461000B448007C0090B349496808786B46012291
:104620002321FDF72DFB0021AE4880F82410FEF772
:10463000F5FC0020C2E72DE9F04F8DB083460F4610
:1046400002200C90A74890F8240020B10020FFF72A
:10465000ADFF012600E0002603A8FFF7E2F905A858
:10466000FFF7FFF901A8FFF720FA02A8FFF742FAC7
:104670009C4890F80AA004A8FFF796FA002407E0E7
:10468000002239465846FFF759FD00B902E0641C84
:10469000022CF5DB00BF022C01D1002528E000240C
:1046A00007E0012206A909A8FFF748FD00B902E0CA
:1046B000641C022CF5DB00BF022C01D1002517E0A1
:1046C00006A93846FFF75CFC00F0FF0809A9584628
:1046D000FFF7A8FC00F0FF090025B9F1000F01D198
:1046E00045F00105B8F1000F01D145F0020500BF0A
:1046F000FF207C490872FF217A484172C1724FF64F
:10470000FF71C181FF218172017401210173BDF824
:104710000C00FEF7D0FE9DF81400FEF78AFEBDF8EF
:104720000400FEF78EFDBDF80800FEF736FE504689
:10473000FEF76BFB9DF81000FEF74EFD16B1012051
:10474000FFF734FF28460DB0BDE8F08FF8B50446FA
:104750000D46164616B94FF0FF30F8BD6148807A15
:1047600010B94FF0FF30F8E720128DF80000E0B2EA
:104770008DF801009DF8010028445A49496849898B
:10478000884202DD4FF0FF30E7E7564A1268117E9B
:10479000544A526810786B460222FDF771FA10B144
:1047A0004FF0FF30D9E7EAB24E4B1B68597D4D4BB5
:1047B0005B6818783346FDF763FA10B14FF0FF30AD
:1047C000CBE70020C9E7F8B504460D46164616B9F2
:1047D0004FF0FF30F8BD4348807A10B94FF0FF30FA
:1047E000F8E720128DF80000E0B28DF801009DF886
:1047F000010028443B4949684989884202DD4FF05D
:10480000FF30E7E7374A1268117E364A526810785F
:104810006B460222FDF734FA10B14FF0FF30D9E7B2
:10482000EAB2304B1B68597D2E4B5B6818783346D3
:10483000FDF788FA10B14FF0FF30CBE70020C9E751
:104840002DE9F04385B005460E4690469946254829
:1048500090F8250020B14FF0FF3005B0BDE8F0839F
:1048600016B94FF0FF30F8E7002423E0281B10288A
:1048700001DD102000E0281B87B23219394620469E
:10488000FFF764FF10B14FF0FF30E6E701AA3946A9
:104890002046FFF798FF10B14FF0FF30DDE73019E9
:1048A0003A4601A902F042F910B16FF00100D4E7D5
:1048B000E01984B2AC42D9DB4FEA28208DF8000021
:1048C00008F0FF008DF80100064A1268917E054A43
:1048D000526810786B460222FDF7D2F938B103E036
:1048E000A49E00082C0100204FF0FF30B5E7012105
:1048F0008A4880F82510A0F826900020ADE70146F0
:10490000864890F8240008700020704702464FF057
:10491000FF30704701464FF0FF307047F8B505464D
:104920000F461446002C70D0B5F5FF5F01DDFF2661
:1049300005E0202D01DA012601E0C5F3471607B98D
:104940000127282C02DD4FF0FF30F8BD7348407D71
:1049500028BB724890F8240038B10020FFF726FEEB
:1049600001216E4880F8201003E000216B4880F898
:1049700020106A481630FFF754F868481830FFF7DF
:1049800070F866481A30FFF790F864481C30FFF75B
:10499000B1F86248817A81771F30FFF705F900206E
:1049A000FEF776F90020FEF78BFC00208DF8000062
:1049B0005A4A12689178594A526810786B46012217
:1049C000FDF75EF910B14FF0FF30BEE740208DF8E3
:1049D0000000524A1268D17B504A526810786B46E8
:1049E0000122FDF74DF900B165E08DF800608DF80A
:1049F00001704A4A1268117A484A526810786B4628
:104A00000222FDF73DF908B155E047E00520FBF72C
:104A1000ABFC4248407A072101EBC000C0B28DF8E0
:104A200000003E4A1268D1793C4A526810786B46C1
:104A30000122FDF725F900B13DE020208DF80000AE
:104A4000012C03D100208DF801000EE0052C03DCC1
:104A500001208DF8010008E0142C03DC02208DF801
:104A6000010002E003208DF801009DF801000721FC
:104A700001EB8010C0B28DF80100284A1268917CC9
:104A8000264A526810786B460222FDF7F9F800B109
:104A900011E0012121484175002056E71F4A1632D6
:104AA000002103E0505C00B105E0491C0C29F9D35A
:104AB0004FF0FF3049E7FF2018490872FF211748DF
:104AC0004172C1724FF6FF71C181FF218172017481
:104AD000012101730146887FFEF797F90F49C88AC3
:104AE000FEF7E9FC0D49087EFEF7A3FC0B49488B55
:104AF000FEF7A7FB0949888BFEF74FFC0749C87FE3
:104B0000FEF76AFB054890F8200010B10120FFF77E
:104B10004DFD002101484175002016E72C010020C1
:104B200010B5C8234FF48062F74940F6F630FFF71E
:104B300087FE10BD10B586B00446F4A0006803904F
:104B4000F3A000680290F3A000680190F2A0006852
:104B5000009004F0030003A9085C8DF8140003A87A
:104B6000C4F3C101405C8DF8150003A8C4F38111A2
:104B7000405C8DF8160004F0030002A9085C8DF873
:104B8000100002A8C4F3C101405C8DF8110002A816
:104B9000C4F38111405C8DF8120005AA032140F294
:104BA0002640FFF7D3FD18B14FF0FF3006B010BD1F
:104BB00004AA032140F22A40FFF7C8FD10B14FF0CC
:104BC000FF30F3E7019805900098049004F004008A
:104BD00058B19DF8140040F001008DF814009DF8C4
:104BE000100040F001008DF8100004F0200058B1D2
:104BF0009DF8150040F001008DF815009DF811009A
:104C000040F001008DF8110004F4807058B19DF857
:104C1000160040F001008DF816009DF8120040F0DB
:104C200001008DF8120005AA03214FF48860FFF7F8
:104C30008DFD10B14FF0FF30B8E704AA032140F218
:104C40003140FFF783FD10B14FF0FF30AEE7B348BE
:104C500004810020AAE71FB50446B048007A00F09E
:104C6000030054F820000190AC48007A00F00400E2
:104C700010B1019840420190A848007AC0F3C100E9
:104C800054F820000290A548007A00F0200010B1EE
:104C9000029840420290A148007AC0F3811054F873
:104CA000200003909D48008900F4807010B10398A3
:104CB000404203909A49019880FB0101800F40EA2D
:104CC000810001909649029880FB0110820042EA1F
:104CD000917002909249039880FB0110820042EA91
:104CE000917003900198000E8DF800000198000C5F
:104CF0008DF801000198000A8DF802000198C0B2F9
:104D00008DF803006A4604214FF47470FFF71EFD0E
:104D100018B14FF0FF3004B010BD0298000E8DF8AE
:104D200000000298000C8DF801000298000A8DF82E
:104D300002000298C0B28DF803006A4604214FF4C5
:104D40007570FFF703FD10B14FF0FF30E3E70398F4
:104D5000000E8DF800000398000C8DF801000398F8
:104D6000000A8DF802000398C0B28DF803006A466D
:104D700004214FF47670FFF7E9FCCCE770B588B0FA
:104D8000064601A8FEF7E9FEBDF804000021C903AC
:104D900041EA5045C4036148007A00F0030056F828
:104DA000200005905D48007A00F0040010B10598DD
:104DB000404205905948007AC0F3C10056F82000DF
:104DC00006905648007A00F0200010B10698404244
:104DD00006905248007AC0F3811056F820000790E0
:104DE0004E48008900F4807010B107984042079047
:104DF0000598C117A0FB042301FB043100FB05103B
:104E0000810041EA927005900698C117A0FB042327
:104E100001FB043100FB0510810041EA927006900D
:104E20000798C117A0FB042301FB043100FB051008
:104E3000810041EA927007900598000E8DF80800F5
:104E40000598000C8DF809000598000A8DF80A00F5
:104E50000598C0B28DF80B000698000E8DF80C0076
:104E60000698000C8DF80D000698000A8DF80E00CB
:104E70000698C0B28DF80F000798000E8DF810004C
:104E80000798000C8DF811000798000A8DF81200A1
:104E90000798C0B28DF8130002AA0C214FF42570B8
:104EA000FFF754FC08B070BD30B585B004461DA2B4
:104EB00007CA02AB07C3C82C03DD4FF0FF3005B0B3
:104EC00030BDC82090FBF4F0401E85B2280A8DF852
:104ED0000000E8B28DF801006A46022140F2162077
:104EE000FFF734FC10B14FF0FF30E8E702AA0C21C5
:104EF00040F6C120FFF72AFC10B14FF0FF30DEE78B
:104F0000064884810020DAE7CC9E00084CCD6C0076
:104F10000CC92C003656760026466600C8050020CF
:104F200009E3CA02FEF2ABC4AAF1DFDFBBAFDFDFE9
:104F30000146FC4880890880002070472DE9FC4725
:104F400006460F4606F0070010B1B7F5C86F03DD3F
:104F50004FF0FF30BDE8FC87384604F01FF881466B
:104F6000F14903F0D1FE80466846FEF77AFD9DF8D0
:104F70000000022806D0042816D0082826D01028C1
:104F800048D135E04FF08D41404604F04FF881465E
:104F900003F0CCFF84B2E549404604F047F881466F
:104FA00003F0C4FF85B238E04FF08C41404604F076
:104FB0003DF8814603F0BAFF84B2DD49404604F073
:104FC00035F8814603F0B2FF85B226E04FF08B4101
:104FD000404604F02BF8814603F0A8FF84B2D5497F
:104FE000404604F023F8814603F0A0FF85B214E0A8
:104FF0004FF08A41404604F019F8814603F096FFCD
:1050000084B2CD49404604F011F8814603F08EFF8A
:1050100085B202E04FF0FF309CE700BF20128DF810
:105020000400E0B28DF8050028128DF80600E8B201
:105030008DF8070006F00100A0B101AA02214FF48B
:10504000EA70FFF783FB10B14FF0FF3082E70DF1FC
:10505000060202214FF49270FFF778FB10B14FF077
:10506000FF3077E706F00200A0B101AA02214FF459
:10507000EC70FFF76BFB10B14FF0FF306AE70DF1FA
:10508000060202214FF49470FFF760FB10B14FF05D
:10509000FF305FE706F00400A0B101AA02214FF43F
:1050A000EE70FFF753FB10B14FF0FF3052E70DF1F8
:1050B000060202214FF49670FFF748FB10B14FF043
:1050C000FF3047E7002045E738B504460020009050
:1050D00004F0010020B19DF8000040F03000009085
:1050E00004F0020020B19DF8000040F00C00009098
:1050F00004F0040020B19DF8000040F0030000908F
:105100006A4601214FF4A470FFF720FB38BD38B583
:105110000446012C01DA012402E0042C00DD042401
:10512000601EC0B200906A46012140F24F10FFF7A6
:105130000DFB38BD38B50446052094FBF0F085B270
:1051400028128DF80000E8B28DF801006A460221AD
:105150004FF4EF70FFF7FAFA38BD38B50446052072
:1051600094FBF0F085B228128DF80000E8B28DF8BB
:1051700001006A4602214FF4ED70FFF7E7FA38BDEF
:10518000F8B505460E464FF47A7095FBF0F000FB3B
:1051900006F4200E8DF80000200C8DF80100200A86
:1051A0008DF80200E0B28DF803006A4604214FF446
:1051B000AE70FFF7CBFAF8BD38B50446052094FB76
:1051C000F0F084B220128DF80000E0B28DF80100FA
:1051D0006A4602214FF4AD70FFF7B8FA38BD38B512
:1051E0000446052094FBF0F084B220128DF80000F4
:1051F000E0B28DF801006A4602214FF4AC70FFF76F
:10520000A5FA38BD38B5044614B94FF0FF3038BDA3
:105210006A4604214FF45870FFF7D5FA10B14FF0E9
:10522000FF30F4E79DF8000000069DF8011040EA09
:1052300001409DF8021040EA01209DF80310084348
:1052400020600020E3E738B50446200E8DF800000A
:10525000200C8DF80100200A8DF80200E0B28DF8D4
:1052600003006A4604214FF45870FFF76FFA38BD07
:1052700038B5044614B94FF0FF3038BD6A460421F2
:105280004FF47170FFF79FFA10B14FF0FF30F4E761
:105290009DF8000000069DF8011040EA01409DF8CD
:1052A000021040EA01209DF80310084300EB800043
:1052B000800020600020E0E738B504461420B4FBED
:1052C000F0F4200E8DF80000200C8DF80100200A6B
:1052D0008DF80200E0B28DF803006A4604214FF415
:1052E0007170FFF733FA38BD38B5044664B1202039
:1052F0008DF8000028208DF8010030208DF8020084
:1053000038208DF8030004E0A3220421684601F050
:1053100039FC6A46042140F69E20FFF717FAFDF794
:105320007DFE38BDC805002000004843000040460F
:105330000000C045000040450000C04438B50446A8
:1053400064B1C0208DF80000C2208DF80100C42097
:105350008DF80200C6208DF8030004E08B220421A2
:10536000684601F00FFC6A46042140F69820FFF7DA
:10537000EDF9FDF753FE38BD3EB504466CB1FDA115
:10538000D1E900208968CDE9002002916A4609210F
:105390004FF49760FFF7DAF93EBDF9A2D2E90010A9
:1053A0009268CDE9010200916A4609214FF49760A5
:1053B000FFF7CCF9F0E73EB5044602208DF8000077
:1053C000CA208DF80100E3208DF8020009208DF835
:1053D00003006A4604216820FFF7B8F9A3208DF87E
:1053E000000004F0400048B1C0208DF80100C82042
:1053F0008DF80200C2208DF8030006E0A3208DF88E
:1054000001008DF802008DF8030004F4C07048B16B
:10541000C4208DF80400CC208DF80500C6208DF83E
:10542000060006E0A3208DF804008DF805008DF835
:105430000600A3208DF807008DF808008DF80900FC
:105440006A460A2140F6A720FFF780F904F003001E
:1054500018B120208DF8000002E0D8208DF800005F
:105460006A46012140F6B620FFF770F904F02000EB
:1054700018B10120FFF780FF02E00020FFF77CFF5A
:1054800004F4C07008B304F4807060B1B2208DF8E9
:1054900000008B208DF80100B6208DF802009B20C3
:1054A0008DF803000BE0B0208DF8000080208DF80F
:1054B0000100B4208DF8020090208DF803006A46A8
:1054C000042140F6A220FFF741F904F0010020B3C7
:1054D000F8208DF800006A4601214FF40B60FFF7B9
:1054E00035F9FA210720FFF729FD0720FFF7ECFD2A
:1054F0000120FFF70CFE6420FFF71CFE4FF4FA704A
:10550000FFF72BFEC821A148FFF73AFE2820FFF73E
:1055100053FE0A20FFF763FE08E0D8208DF8000054
:105520006A4601214FF40B60FFF710F904F0020006
:1055300018B1D9208DF8000002E0D8208DF80000C5
:105540006A46012140F23D70FFF700F904F00400C3
:1055500018B10120FFF7F2FE02E00020FFF7EEFE97
:1055600004F0100018B10120FFF7BEFE02E0002099
:10557000FFF7BAFE44F0080085494881FDF74EFD6B
:1055800000208349887304F0400018B10846807BEE
:10559000801D887304F4C07020B17D48807B801D1D
:1055A0007B49887304F0140020B17948807B103067
:1055B0007749887304F0030020B17548807B001D93
:1055C0007349887300203EBD0146714840890880B8
:1055D000002070472DE9F0410446E07800F0C00655
:1055E000E07800F03F05607800F0010098B1EF101E
:1055F0002846E91705EB5171C910A5EBC101491CFB
:1056000001F0FF086248006820B161484146026825
:105610003846904700BF607800F0080030B15C4821
:10562000406818B1B0115A4A516888470020BDE857
:10563000F08110B586B0044656A207CA03AB07C373
:1056400057A207CA8DE80700012C09D0022C0ED101
:1056500003AA0B2140F68220FFF778F806B010BDB0
:105660006A460B2140F68220FFF770F8F6E74FF00C
:10567000FF30F3E72DE9F04F8DB007468846154619
:105680009946DDE9166B0024002030804049887B74
:105690005A4605A9FEF7BDFB18B1601E0DB0BDE866
:1056A000F08F3B48807A00F01400002861D09DF80C
:1056B000140000069DF8151040EA01409DF81610F0
:1056C00040EA01209DF81710084328609DF8180053
:1056D00000069DF8191040EA01409DF81A1040EAB2
:1056E00001209DF81B10084368609DF81C0000060F
:1056F0009DF81D1040EA01409DF81E1040EA01206F
:105700009DF81F100843A8609DF8200000069DF832
:10571000211040EA01409DF8221040EA01209DF846
:1057200023100843E86004F11000C4B22868001494
:105730000190686800140290A86800140390E8685B
:105740000014049001984043029901FB0100039961
:1057500001FB0100049901FB010ABAF1706F02DB41
:10576000BAF1885F22DDFDF759FC00203080401E31
:1057700094E721E0B8AAB38DB4980D355D00000020
:10578000B8AAAAAAB088C3C5C700000009E3CA0224
:10579000C8050020D8B1B9F38BA391B609B4D900DC
:1057A000DAB1B9F38BA391B6DAB4DA00B6F9000036
:1057B00040F48070308000BF3448807A00F04000B0
:1057C00020B305A9601C085C095D40EA012000B215
:1057D000A8F8000005A9E01C095C05AAA01C105C43
:1057E00041EA002000B2A8F8020005A9601D095C8A
:1057F000201D105C41EA002000B2A8F80400A01DA2
:10580000C4B2B6F9000040F0080030801F4840895B
:1058100000F4C07008B305A9601C085C095D40EA8B
:10582000012000B2388005A9E01C095C05AAA01C73
:10583000105C41EA002000B2788005A9601D095C77
:10584000201D105C41EA002000B2B880A01DC4B247
:10585000B6F9000040F0700030800C48807A00F00B
:10586000030018B105A90819FFF7B4FE4846FDF773
:1058700034FF002012E70146044801600020704711
:10588000014602484160002070470000C805002022
:10589000014691F90020002A01DD00201EE091F967
:1058A0000020002A01DA042018E091F90120002AE2
:1058B00001DD012012E091F90120002A01DA052022
:1058C0000CE091F90220002A01DD022006E091F9A6
:1058D0000220002A01DA062000E00720704770B598
:1058E00005462846FFF7D4FF0446E81CFFF7D0FF23
:1058F00044EAC00084B2A81DFFF7CAFF44EA801042
:1059000084B2204670BD70B588B002A905A8FEF724
:1059100092FE0446072C3FD101A8FEF701F9059835
:1059200003F024FB0646019903F080FB054603F0D3
:10593000E1FA0590069803F019FB0646019903F079
:1059400075FB054603F0D6FA0690079803F00EFBA8
:105950000646019903F06AFB054603F0CBFA07906F
:1059600005A8FFF778F96846FEF7F7F8BDF80010CC
:10597000029848430290BDF80010039848430390F2
:10598000BDF8001004984843049002A8FFF7F6F908
:10599000FEA001F04FF800BF08B070BD2DE9F04344
:1059A00004460D46DDE907670021012041E0DFF8EC
:1059B00000C43CF81080A0F1010CDFF8F49329F842
:1059C0001C8009F1160C3CF81090A0F1010CDFF8D6
:1059D000E08308F1160828F81C9008F1160C3CF832
:1059E0001090A0F1010C08F1160828F81C9008F19D
:1059F000160C3CF81090A0F1010C08F1160828F8DC
:105A00001C9008F1160C3CF81090A0F1010C08F164
:105A1000160828F81C9008F1160C3CF81090A0F11C
:105A2000010C08F1160828F81C9000F1010C0CF08C
:105A3000FF000A28BBDBDFF878C3ACF81240ACF8F3
:105A40002850ACF83E20ACF85430ACF86A60ACF8A2
:105A500080700021002008E0DFF854C33CF910C03A
:105A6000614400F1010C0CF0FF000A28F4DB4FF058
:105A70000A0C91FBFCFC0FFA8CFCDFF83483A8F8CD
:105A800014C0002100200AE0DFF824C30CF1160C3A
:105A90003CF910C0614400F1010C0CF0FF000A2831
:105AA000F2DB4FF00A0C91FBFCFC0FFA8CF8DFF8EC
:105AB00000C3ACF82A80002100200AE0DFF8F0C221
:105AC0000CF12C0C3CF910C0614400F1010C0CF0FD
:105AD000FF000A28F2DB4FF00A0C91FBFCFC0FFAE6
